:020000040000FA
:10000000831600308500403086008312850186010A
:10001000642017308C002A308D008D0B0D280000D5
:10002000051002308D008D0B132800000000051410
:1000300030308D008D0B1A2800008C0B102800002A
:1000400005108C018616861201308D008D0B262836
:10005000061206160514000000000000861786131D
:1000600003308D008D0B32280000000012308D000F
:10007000851486150000000086118D0B39280000BC
:1000800000000000851005108C0B242817308C0010
:1000900000000000000000000000051431308D0059
:1000A0008D0B50280000051000000000000000002B
:1000B000000000008C0B4D28000005142F308D002F
:1000C0008D0B60280000082806308E000510000007
:1000D000000000000000051417308D008D0B6E2805
:1000E00005308E0B66288E00051018308D008D0BA4
:1000F00077280000051405308E0B74288E0005103B
:100100000000000000000000051417308D008D0B6A
:10011000872800008E0B7F280000051002308D001C
:100120008D0B902800000000051405308D008D0B0C
:0601300097280000080002
:00000001FF
